:100000000C947B030C94A3030C94A3030C94A30300
:100010000C94A3030C94A3030C94A3030C94A303C8
:100020000C94A3030C94A3030C940B060C947D0670
:100030000C94A3030C94A3030C94A3030C94A303A8
:100040000C94A3030C94A3030C94A3030C94A30398
:100050000C94A3030C94A3030C94A3030C94700AB4
:100060000C94A3030C94A3030C94A3030C94A30378
:100070000C94A3030C94A3030C94A3030C94A30368
:100080000C94A3030C94A3030C94A3030C94A30358
:100090000C94A3030C94A3030C94A3030C94A30348
:1000A0000C94A3030C94A3030C94A303D10D110E81
:1000B0002E0E770EAA0E140FE20FF0F89C8E878397
:1000C000878E9CF8F00000FEFF0303030303070E76
:1000D000FCF80000FEFF0303030303070EFCF80017
:1000E00000FFFF00000000000000FFFF0000FEFF17
:1000F0008383838383C7EE7C380000F8FC0E0703FC
:100100000303070EFCF800003F7FE0C08080C0E0E2
:100110007F3FFFFF01010101010101FFFF0000FF1F
:10012000FF0C0C0C0C1C3E77E3C100007FFFC0C02D
:10013000C0C0C0E0703F1F00001F3F70E0C0C0C0E3
:10014000E0703F1F00007FFFC1C1C1C1C1E3773E26
:100150001C00001F3F70E0C0C0C0E0703F1F0000E7
:1001600000000001FFFF01000000D5F08D14A1C8C0
:1001700081CFD9F1AF2000080B0002020201000973
:100180000400000102020000052400100105240102
:10019000010104240206052406000107058103105D
:1001A000004009040100020A0000000705020240A5
:1001B0000000070583024000000403090412010047
:1001C00002EF020140412336800001010203014198
:1001D000726475696E6F204C4C430041726475699E
:1001E0006E6F204C656F6E6172646F0001020408CF
:1001F0001020408000000000003E5B4F5B3E3E6BE5
:100200004F6B3E1C3E7C3E1C183C7E3C181C577DB0
:10021000571C1C5E7F5E1C00183C1800FFE7C3E7FC
:10022000FF0018241800FFE7DBE7FF30483A060E0E
:100230002629792926407F050507407F05253F5A55
:100240003CE73C5A7F3E1C1C08081C1C3E7F1422C5
:100250007F22145F5F005F5F06097F017F00668970
:10026000956A606060606094A2FFA29408047E04B6
:100270000810207E201008082A1C08081C2A0808DC
:100280001E101010100C1E0C1E0C30383E3830069C
:100290000E3E0E06000000000000005F0000000798
:1002A000000700147F147F14242A7F2A12231308C6
:1002B000646236495620500008070300001C2241A2
:1002C000000041221C002A1C7F1C2A08083E080846
:1002D00000807030000808080808000060600020F6
:1002E000100804023E5149453E00427F40007249D9
:1002F0004949462141494D331814127F102745457D
:1003000045393C4A49493141211109073649494992
:1003100036464949291E0000140000004034000000
:100320000008142241141414141400412214080269
:10033000015909063E415D594E7C1211127C7F49DC
:100340004949363E414141227F4141413E7F494931
:1003500049417F090909013E414151737F0808085D
:100360007F00417F41002040413F017F081422412E
:100370007F404040407F021C027F7F0408107F3E88
:100380004141413E7F090909063E4151215E7F09F5
:10039000192946264949493203017F01033F40405C
:1003A000403F1F2040201F3F4038403F6314081447
:1003B0006303047804036159494D43007F4141417F
:1003C0000204081020004141417F04020102044060
:1003D00040404040000307080020545478407F28E4
:1003E0004444383844444428384444287F385454DA
:1003F000541800087E090218A4A49C787F080404FD
:100400007800447D40002040403D007F102844009B
:1004100000417F40007C047804787C08040478382C
:1004200044444438FC1824241818242418FC7C085C
:10043000040408485454542404043F44243C4040D9
:10044000207C1C2040201C3C4030403C442810288C
:10045000444C9090907C4464544C440008364100D5
:100460000000770000004136080002010204023C4F
:100470002623263C1EA1A161123A4040207A38541E
:100480005455592155557941215454784121555499
:10049000784020545579400C1E52721239555555EA
:1004A00059395454545939555454580000457C41D5
:1004B0000002457D420001457C40F0292429F0F0EE
:1004C000282528F07C545545002054547C547C0A3F
:1004D000097F4932494949323248484832324A480C
:1004E00048303A4141217A3A42402078009DA0A00C
:1004F0007D39444444393D4040403D3C24FF242460
:10050000487E4943662B2FFC2F2BFF0929F620C07C
:10051000887E090320545479410000447D413048CD
:10052000484A32384040227A007A0A0A727D0D1910
:10053000317D2629292F28262929292630484D4072
:1005400020380808080808080808382F10C8ACBA6E
:100550002F102834FA00007B000008142A142222ED
:10056000142A14089500220095AA005500AAAA553D
:10057000AA55AA000000FF00101010FF0014141468
:10058000FF001010FF00FF1010F010F0141414FC06
:10059000001414F700FF0000FF00FF1414F404FC23
:1005A000141417101F10101F101F1414141F001004
:1005B0001010F0000000001F101010101F1010107D
:1005C00010F010000000FF1010101010101010108C
:1005D000FF10000000FF140000FF00FF00001F10CC
:1005E000170000FC04F414141710171414F404F486
:1005F0000000FF00F714141414141414F700F71477
:100600001414171410101F101F141414F4141010C5
:10061000F010F000001F101F0000001F1400000069
:10062000FC140000F010F01010FF10FF141414FF61
:10063000141010101F00000000F010FFFFFFFFFF5C
:10064000F0F0F0F0F0FFFFFF0000000000FFFF0FF0
:100650000F0F0F0F38444438447C2A2A3E147E0280
:10066000020606027E027E02635549416338444415
:100670003C04407E201E2006027E020299A5E7A5CA
:10068000991C2A492A1C4C7201724C304A4D4D303B
:100690003048784830BC625A463D3E494949007E60
:1006A0000101017E2A2A2A2A2A44445F44444051F7
:1006B0004A444040444A51400000FF0103E080FFAB
:1006C000000008086B6B083612362436060F090F37
:1006D00006000018180000001010003040FF010153
:1006E000001F01011E00191D1712003C3C3C3C007C
:1006F00000000000431111241FBECFEFDAE0DEBF7F
:10070000CDBF14E0A0E0B1E0E4EBF9E202C0059057
:100710000D92A833B107D9F728E0A8E3B4E001C0EF
:100720001D92A53DB207E1F713E0CBE7D3E004C08B
:100730002197FE010E94CD14CA37D107C9F70E9444
:10074000500B0C94D8140C940000FC0180915404BC
:10075000811103C08FEF9FEF08959FB7F89482E057
:100760008093E9002091F20030E01216130614F491
:1007700021E030E02115310559F0289884E6809376
:1007800053048091F10080838091F200882319F056
:100790009FBFC90108958BE68093E800F9CF2FB77A
:1007A000F89483E08093E9009091E800892F8072AB
:1007B00095FF04C09091F20080E4891B2FBF08953B
:1007C0008091780881110DC082E08093740884E0E4
:1007D00080937508109277081092760881E08093D4
:1007E000780884E798E00895CF93DF931F92CDB700
:1007F000DEB76983DC01ED91FC910280F381E02D8D
:1008000041E050E0BE016F5F7F4F09950F90DF918F
:10081000CF91089583E08093E9008091F2008823CE
:1008200019F08AE38093E80008950E94CF0390E0D6
:100830000895CF93DF931F92CDB7DEB7FC01848577
:10084000958597FD05C02FEF3FEF358724870BC0B7
:10085000CE0101960E94A503019719F4898190E0C9
:1008600002C08FEF9FEF0F90DF91CF9108950F930C
:100870001F93CF93DF931F92CDB7DEB78C01FC019E
:100880008485958597FF0EC0CE0101960E94A50331
:10089000019719F4298130E002C02FEF3FEFF801F2
:1008A00035872487F801848595850F90DF91CF9156
:1008B0001F910F910895FC018485958597FD0BC0CC
:1008C0009FB7F89482E08093E9008091F2009FBF87
:1008D00090E0019608959FB7F89482E08093E90034
:1008E0008091F2009FBF90E008958F929F92AF9207
:1008F000BF92CF92DF92EF92FF920F931F93CF930D
:10090000DF935C016B017A0180910D01882309F46A
:100910005BC080915404882309F456C0809152042E
:1009200080FF05C08091E00082608093E000E701D5
:1009300010E00AEF83E0882E9AE3992E2097D9F1F0
:100940000E94CF0381110AC0015009F43DC061E04B
:1009500070E080E090E00E94360AF0CF282F30E06F
:10096000C217D3070CF48C2F4FB7F8948092E9008C
:100970009091E80095FF1DC0282F30E0C21BD30BDB
:10098000F601982F915020F081918093F100FACFD9
:10099000C20ED31E112319F09092E80009C0809175
:1009A000E80085FD06C09092E80011E0209709F06C
:1009B00010E04FBFC3CF1111C3CF5D9884E6809381
:1009C00073081E141F0444F081E090E0F501938346
:1009D000828380E090E001C0C701DF91CF911F9139
:1009E0000F91FF90EF90DF90CF90BF90AF909F90CE
:1009F0008F900895DF92EF92FF920F931F93CF9302
:100A0000DF93D82E8A017B01E40EF51EEB01CE1593
:100A1000DF0571F0D7FE03C0FE01849101C088811B
:100A20000E94150B21968111F2CF8FEF9FEF01C02D
:100A3000C801DF91CF911F910F91FF90EF90DF9050
:100A400008950F931F93CF93DF931F92CDB7DEB717
:100A500082E0898342E450E067E771E080E80E9429
:100A6000FA040E94E003DC0112960D911C91139789
:100A70000115110569F0D801ED91FC910280F38117
:100A8000E02DBE016F5F7F4FC801099597FF07C03A
:100A900089810F90DF91CF911F910F910895F801F7
:100AA00000851185E5CF20915F08282329F49091D6
:100AB0005E08982381E009F480E00895009769F0CA
:100AC000FC0101900020E9F73197AF01481B590B59
:100AD000BC0185E598E00C94AD0880E090E00895B5
:100AE0008F929F92AF92BF920F931F93CF93DF93FA
:100AF000CDB7DEB7A1970FB6F894DEBF0FBECDBF5E
:100B000019A2423008F44AE08E010F5D1F4F842E77
:100B1000912CA12CB12CA50194010E946012E62F0A
:100B2000B901CA0101501109EA3014F4E05D01C0B5
:100B3000E95CD801EC93232B242B252B61F7C8010A
:100B40000E945E05A1960FB6F894DEBF0FBECDBF22
:100B5000DF91CF911F910F91BF90AF909F908F9099
:100B60000895E0915508F09156080190F081E02D2C
:100B7000682F85E598E00994CF92DF92EF92FF927B
:100B8000CF93DF936C01990FEE08FF08F7FE17C0B3
:100B90008DE20E94B105EC0166277727CB016C1925
:100BA0007D098E099F094AE00E9470058C0F9D1FE8
:100BB000DF91CF91FF90EF90DF90CF9008954AE0C2
:100BC000C701B601DF91CF91FF90EF90DF90CF90FA
:100BD0000C9470050C945E0580E0E5E5F4E081116D
:100BE0008FEF002481938193819381930394D1F7B4
:100BF0000895809155048EBDE6E5F4E081910DB431
:100C000007FEFDCF8EBD88E0E535F807B9F70DB4D6
:100C100007FEFDCF08951F920F920FB60F92112479
:100C20008F939F938091E1009091E100937F909347
:100C3000E10083FF0FC01092E90091E09093EB0078
:100C40001092EC0092E39093ED001092540498E01F
:100C50009093F00082FF20C093E09093E900909180
:100C6000F200992319F09AE39093E80090917308A9
:100C7000992339F0909173089150909373089923B8
:100C800089F190915304992339F090915304915034
:100C900090935304992341F184FF10C08091E200A6
:100CA0008E7E81608093E2008091E1008F7E809350
:100CB000E100809152048E7E806111C080FF16C0D9
:100CC0008091E2008E7E80618093E2008091E1005D
:100CD0008E7E8093E100809152048E7E81608093AD
:100CE000520404C05D9ACDCF289AD6CF9F918F91A0
:100CF0000F900FBE0F901F9018951F920F920FB676
:100D00000F921124CF92DF92EF92FF920F931F93D5
:100D10002F933F934F935F936F937F938F939F9303
:100D2000AF93BF93EF93FF93CF93DF93CDB7DEB72E
:100D30006C97DEBFCDBF1092E9008091E80083FF81
:100D4000EDC168E0CE0145960E94430B82EF80938F
:100D5000E8008D8987FF05C09091E80090FFFCCFE7
:100D600003C09EEF9093E800982F907609F0C6C0DC
:100D70009E892F89188D91110CC0803829F480919B
:100D800051048093F10002C01092F1001092F10022
:100D900048C1422F50E0512B913051F4811141C193
:100DA0004130510509F03DC1809151048D7F0BC048
:100DB000933061F4811135C14130510509F031C1E1
:100DC000809151048260809351042BC1953041F48D
:100DD0008091E80080FFFCCF20682093E30021C1D0
:100DE000963009F05FC0EB8CFC8C1092E9001092F9
:100DF0004F0410924E04123091F510924D0410924F
:100E00004C040E94210599E0BE016F5F7F4FDB011A
:100E1000E92F1D92EA95E9F799831A8391E09E8361
:100E200090EA98879AEF998720914E0430914F0469
:100E3000275F3F4F3C832B838D831092E9001092F4
:100E40004F0410924E04F0924D04E0924C0449E09D
:100E500050E080E00E94FA040E942105E2C0F09276
:100E60004D04E0924C040E94E003DC011296ED90E8
:100E7000FC901397E114F10409F4C0C0D701ED917F
:100E8000FC910480F581E02DBE016B5E7F4FC701B0
:100E90000995009719F00CF0C4C0C7C0F701E084B1
:100EA000F184E8CF973009F4C0C0983021F481E094
:100EB0008093F100B6C0993009F0B3C0837009F097
:100EC000B4C0E3E1F1E081E021E036E390819923D1
:100ED00061F08093E9002093EB0091919093EC00F6
:100EE0003093ED008F5F873089F78EE78093EA00BB
:100EF0001092EA008F898093540493C08B8D9C8D4F
:100F00001092E90010924F0410924E0490934D04F9
:100F100080934C04898D811156C08E899D89913AA8
:100F200059F4813209F081C047E050E066E071E099
:100F300080E00E94FA0475C0913209F076C08332D5
:100F400089F4888D90E0982F88272F89822BA0E044
:100F5000B0E08093020190930301A0930401B09349
:100F600005015FC0803269F48091E80082FFFCCF08
:100F700067E086E091E00E94430B8BEF8093E800EE
:100F800006C0823209F04DC08F8980930D01809197
:100F90005004882319F0EEEFFAE002C0E0E0F8E038
:100FA0008091060190910701A0910801B09109017B
:100FB000803B9440A105B10509F07BC080910D01F3
:100FC00080FF93C076C00E94E003DC0112960D9171
:100FD0001C9113970115110541F1D801ED91FC9178
:100FE0000190F081E02DBE016B5E7F4FC801099535
:100FF000811117C0F80100851185ECCF113009F47B
:101000004EC0133091F48F89882309F445C0823093
:1010100081F440E860E18BED91E00E9406118823A5
:1010200021F08EEF8093E80079C081E28093EB009D
:1010300075C0813029F440E86BE08FEC91E0EDCF92
:10104000833099F70E94E003DC011296ED90FC904A
:1010500013978E010F5F1F4F6801E114F10479F0BF
:10106000D701ED91FC910680F781E02DB801C70111
:101070000995080F111DF701E084F184EECFD80126
:101080001C92F60101900020E9F73197BF016C191D
:101090007D0940E0C601C1CF69EB71E002C06DEB94
:1010A00071E06115710509F2FB01449150E080E89F
:1010B00040CF0FB6F894A895809160008861809326
:1010C0006000109260000FBEA895EE3F2AE0F20784
:1010D00039F08091FE0A9091FF0A91838083A1CF1D
:1010E0001092FF0A1092FE0A9CCFEE3F8AE0F807AA
:1010F00031F0808191819093FF0A8093FE0A87E707
:1011000097E7918380839BE088E10FB6F894A895D8
:10111000809360000FBE9093600083CF6C960FB6F3
:10112000F894DEBF0FBECDBFDF91CF91FF91EF915D
:10113000BF91AF919F918F917F916F915F914F91EF
:101140003F912F911F910F91FF90EF90DF90CF90E3
:101150000F900FBE0F901F901895CF92DF92EF92D5
:10116000FF920F931F93CF93DF936C017A018B0152
:10117000C0E0D0E0CE15DF0589F0D8016D918D017A
:10118000D601ED91FC910190F081E02DC601099509
:10119000892B11F47E0102C02196ECCFC701DF91AB
:1011A000CF911F910F91FF90EF90DF90CF90089516
:1011B0002F923F924F925F926F927F928F929F9267
:1011C000AF92BF92CF92DF92EF92FF920F931F9355
:1011D000CF93DF93CDB7DEB727970FB6F894DEBF76
:1011E0000FBECDBF9B838A836A30A1F4DC015C967D
:1011F0002C915C9758968D919C915997B8E02B9FB4
:10120000800D911D1124EA81FB81918F808F178AB7
:10121000168AC1C06D3009F4BEC0AA81BB815C963C
:101220004C915C975B966C905B976E825A967C9023
:101230005A977F825896CD90DC90599756968D910B
:101240009C91579780389105C4F0AA81BB815C9628
:101250002C915C97422F50E056968D919C91579718
:10126000B6E02B9F800D911D1124EA81FB81978BA5
:10127000868B258D21117AC08EC0F0E4CF16D10463
:1012800024F79C0155E0459F200D311D11241216B5
:101290001306DCF6242E312C9601A8E04A9F200D7F
:1012A000311D11241216130684F6B5E06B9FB001B0
:1012B0001124FB01EC50FE4F2F0150E0F201B490DD
:1012C000553009F4B12C7601B8E09B2EB0FC02C079
:1012D0008E8001C08F8081100BC06E807F80671070
:1012E00007C0B6949A94E20CF31C9110EFCF33C070
:1012F0009C012983622F681B641798F7B701E62FBA
:10130000EE19E41728F520383105F8F4603471053A
:10131000E0F48B01ECEEF1E0A0E16A2E7980609EB2
:10132000D001A0781124A70D0770E00FF11DA49043
:10133000BD83AC83AB5ABB4F882019F0EC91AE2A29
:1013400003C0A094EC91AE22AC926F5F7F4FD7CFD9
:101350002F5F3F4FCECF5F5F820D931D92012F5FB6
:101360003F4F2901563009F0A9CF6FCF6AEF6403D0
:101370009001659F300D112420583F4F28173907E1
:1013800054F48A819B81DC01ED91FC910190F08104
:10139000E02D6AE0099581E090E027960FB6F89479
:1013A000DEBF0FBECDBFDF91CF911F910F91FF9098
:1013B000EF90DF90CF90BF90AF909F908F907F90F5
:1013C0006F905F904F903F902F90089508950895EB
:1013D00080E090E008950E94D314CF93DF9300D073
:1013E00000D0CDB7DEB7611571058105910579F0A3
:1013F0009B01AC0169833A834B835C830E940A1290
:1014000029813A814B815C810E942E1203C060E0E9
:1014100070E0CB010F900F900F900F90DF91CF9164
:1014200008953FB7F8948091D1089091D208A09187
:10143000D308B091D40826B5A89B05C02F3F19F05A
:101440000196A11DB11D3FBFBA2FA92F982F882744
:10145000820F911DA11DB11DBC01CD0142E0660F9F
:10146000771F881F991F4A95D1F708958F929F92F1
:10147000AF92BF92CF92DF92EF92FF926B017C010D
:101480000E94110A4B015C01C114D104E104F10472
:10149000F1F00E94110ADC01CB0188199909AA090F
:1014A000BB09883E9340A105B10570F321E0C21A43
:1014B000D108E108F10888EE880E83E0981EA11C8F
:1014C000B11CC114D104E104F10419F7DDCFFF9080
:1014D000EF90DF90CF90BF90AF909F908F90089546
:1014E0001F920F920FB60F9211242F933F938F9359
:1014F0009F93AF93BF938091380490913904A0914A
:101500003A04B0913B043091D00823E0230F2D37EB
:1015100020F40196A11DB11D05C026E8230F0296F7
:10152000A11DB11D2093D0088093380490933904F5
:10153000A0933A04B0933B048091D1089091D208D3
:10154000A091D308B091D4080196A11DB11D80933C
:10155000D1089093D208A093D308B093D408BF9138
:10156000AF919F918F913F912F910F900FBE0F9050
:101570001F9018952D9A0895BC0180E090E00C947E
:10158000360A8FB12CB193B130E02095309520749C
:101590003327A90123E0559547952A95E1F7292F8F
:1015A00030E0209530952071332735952795359576
:1015B0002795242B8095807F822B089583B7817F88
:1015C00083BF83B7816083BF889583B78E7F83BFD6
:1015D00008958EBD00000DB407FEFDCF089588E08C
:1015E0000E945305811103C084E00C9453050895B3
:1015F00080E20E945305882349F080913C04909139
:101600003D04019790933D0480933C0480E40E9444
:101610005305882349F080913C0490913D04019644
:1016200090933D0480933C04089540914E04509162
:101630004F0420914C0430914D0442175307B4F4E9
:101640009091E8009570E1F39091E80092FD19C047
:101650008093F10080914E0490914F0401968F7316
:101660009927892B19F48EEF8093E80080914E041E
:1016700090914F04019690934F0480934E0481E023
:10168000089580E00895615030F02091F100FC0150
:1016900020830196F8CF289884E680935304089518
:1016A000789484B5826084BD84B5816084BD85B53D
:1016B000826085BD85B5816085BD80916E00816049
:1016C00080936E00109281008091810082608093EF
:1016D00081008091810081608093810080918000F1
:1016E000816080938000809191008260809391005E
:1016F0008091910081608093910080919000816041
:10170000809390008091C10084608093C10080919B
:10171000C10082608093C1008091C100816080938C
:10172000C1008091C30081608093C3008091C0009C
:1017300082608093C0008091C20081608093C2006B
:1017400080917A00846080937A0080917A00826030
:1017500080937A0080917A00816080937A008091F2
:101760007A00806880937A00109254041092510499
:10177000109252048091D70081608093D70080EA54
:101780008093D80089B5806189BD89B5826089BDA3
:1017900009B400FEFDCF61E070E080E090E00E94BF
:1017A000360A8091D8008F7C80618093D800809128
:1017B000E000807F8093E0008091E1008E7E809346
:1017C000E1008DE08093E200559A209AEEEFFFE76A
:1017D000859194918B3F9C4D19F481E08093500446
:1017E00081EC80937C0085B1806F85B9249884B1A9
:1017F000866E84B95E9A5F988AB1806D8AB9769A4E
:101800006E9881B3806F81BB899880B38D7080BBE7
:1018100080E58CBD81E08DBD85E090E00E94BC0A32
:101820005F9A85E090E00E94BC0A5E985C98CAE6E8
:10183000D1E01C2F135FFE0184910E94E90A2196DA
:101840001C13F9CF5C9A81E88093640081E0809357
:101850006500C0E0D4E080E00E94E90A2197D9F752
:101860000E94C10A87FF1FC05C9885EA0E94E90AAE
:101870005C9A2E982F982D988091640080628093B6
:1018800064000E94DE0AFDCF2D980E94C10A847870
:10189000843871F00E94C10A8471843131F188EC7E
:1018A00090E00E94BC0A0E94C10A82FDEDCF3AC0BE
:1018B0000E94BA0A88EC90E00E94BC0A2F9882E04D
:1018C00090E00E9418128F3F29F06FEF82E090E0C5
:1018D0000E94201284EF91E00E94BC0A2F9A0E947D
:1018E000C10A84788438D9F3D5CF0E94BA0A88EC2B
:1018F00090E00E94BC0A2E9882E090E00E941812AC
:10190000882329F060E082E090E00E94201284EFBA
:1019100091E00E94BC0A2E9A0E94C10A847184310F
:10192000D9F3BDCF0E94BA0A82E090E00E9418125B
:10193000882331F03E9A3F9A81E080933E0404C0B0
:1019400010923E043E983F982E98CEEEDFEF08E0CE
:1019500010E00E94C10A86FF04C02E9A2F9A2D9A89
:101960008BC0CC3F2FEFD20719F42E9A2F9805C0C9
:10197000C831D10511F42F9A2D980E94EC05C03F73
:101980004FEFD40784F40E94F9058BE190E00E94A8
:10199000BC0AC03F5FEFD50709F059C08AEF90E05D
:1019A0000E94BC0A54C09E01D7FF04C022273327DF
:1019B0002C1B3D0B27703327CE01D7FD079653E034
:1019C000959587955A95E1F7D7FF05C00197F801DE
:1019D000E21BF30B9F017C01F694FE2CEE24F7949E
:1019E000E79460E070E04801821A930AA70140582A
:1019F0005F4F5A018F3F5FEF950744F40196685A95
:101A00007F4F7501603B710589F7BDCFD701A751A5
:101A1000BB4F40E050E08F3FEFEF9E0709F4DBC380
:101A2000FA01E60FF71FE654FF4FE4916D01CA1863
:101A3000DB08CE0CDF1CF0E02F01022E01C0440CAD
:101A40000A94EAF7F601708047284082C4C32196C1
:101A5000C931D10509F07DCF8CEB92E00E94BC0A20
:101A60000E94BA0AE0915908F0915A080190F08159
:101A7000E02D89E598E0099582E390E00E94BC0A98
:101A80000E94C10A8111F8CF0E94EC0510926E08E5
:101A900010926D0810926C0810926B0880E1809390
:101AA000600830E0232E30E0332EC1E0D0E006E0C5
:101AB00010E02FB7F8948091380490913904A091E8
:101AC0003A04B0913B042FBF4091650850916608DD
:101AD000609167087091680820916908222341F09D
:101AE00020916108821B80936A08109269086CC378
:101AF00084179507A607B70738F4481B423008F447
:101B000063C30E94DE0A60C3F1E0F093690880932A
:101B1000610890936208A0936308B09364082091D1
:101B20006008820F911DA11DB11D809365089093DF
:101B30006608A0936708B093680880915C0890914C
:101B40005D08019690935D0880935C080E94EC0507
:101B500010926E0810926D0810926C0810926B082B
:101B600080915E0880935F080E94C10A80935E089E
:101B700080914B04882349F08091490490914A0454
:101B8000019690934A0480934904E0913C04F091BB
:101B90003D04E730F10508F015C3EA5AFF4F0C94F5
:101BA000CD148FE391E00E94EA0581E691E00E9466
:101BB000EA0581E791E00E94EA058CE791E00E9446
:101BC000EA050E94EF0A882309F4FCC280916400B0
:101BD0008E7F8093640080917A00806480937A0085
:101BE00080917A0086FDFCCFE0907800F09079003B
:101BF0000E94110A6701E12CF12C7601DD24CC242E
:101C00006C0D7D1D8E1D9F1D611571058105910552
:101C100011F00E940F128091640081608093640033
:101C2000CDC280E891E00E94EA0580E20E9453055F
:101C3000882321F010933D0400933C0480E40E942B
:101C40005305882309F4BEC280913C0490913D0461
:101C5000019690933D0480933C04B4C280EE91E0E1
:101C60000E94EA0580914704909148040E94BC05B7
:101C70008EE591E00E94EA0580914504909146042A
:101C80000E94BC0582E092E00E94EA052091470490
:101C9000309148048091450490914604820F931F2F
:101CA0000E94BC050E94EF0A8823F1F066E070E014
:101CB00080E090E00E94ED09DC01CB010196A11DBE
:101CC000B11D909348048093470466E070E080E083
:101CD00090E00E94ED09DC01CB010196A11DB11D30
:101CE00090934604809345040E94F80A6BC289E0F1
:101CF00092E00E94EA05C0904304D09044040D2C69
:101D0000000CEE08FF08F7FE0CC08DE20E94B10542
:101D100066277727CB016C197D098E099F094AE058
:101D200003C04AE0C701B6010E9470050E94EF0A95
:101D30008823D1F264E170E080E090E00E94ED0938
:101D4000DC01CB010196A11DB11D90934404809349
:101D50004304CACF82E292E00E94EA058AE592E05B
:101D60000E94EA0580910001909101010E94BC054A
:101D70008EE591E00E94EA05809141049091420431
:101D80000E94BC0580E80E945305882349F0809199
:101D9000000190910101019690930101809300014F
:101DA00080E10E945305882349F0809100019091C1
:101DB0000101019790930101809300010E94EF0AB5
:101DC000882329F160910001709101016F5F7F4FBD
:101DD000CB01770FAA0BBB0B82309105A105B10592
:101DE00074F0BC01CD0161507109810991090E9413
:101DF000ED09DC01CB010196A11DB11D04C081E0FC
:101E000090E0A0E0B0E09093420480934104809180
:101E1000000190910101181619060CF465CFD093BA
:101E20000101C093000160CF87E692E00E94EA05BD
:101E30006091490470914A04072E000C880B990B9D
:101E40000E94A61320E030E040E752E40E94031312
:101E50006B017C014B015C019B01AC010E94C81429
:101E6000882319F086E992E01AC026013701E89428
:101E700077F82FEF3FEF4FE75FE7C301B2010E9412
:101E8000C81481110FC02FEF3FEF4FE75FE7C30189
:101E9000B2010E94FE1218162CF48AE992E00E9408
:101EA0005E0574C02FEF3FEF4FE75FE4C701B60157
:101EB0000E94561418161CF48EE992E0F0CF2FEF12
:101EC0003FEF4FE75FECC701B6010E94FE1287FDAE
:101ED000F3CF20E030E0A901C701B6010E94FE1255
:101EE00087FF09C08DE20E94B10546015701B7FA8C
:101EF000B094B7F8B0942AE037ED43EA5BE3C5014C
:101F0000B4010E9492124B015C010E9475136B0197
:101F10007C010E94A4139B01AC01C501B4010E9485
:101F200091124B015C014AE0C701B6010E947005A5
:101F30008EE20E94B10520E030E040E251E4C501AC
:101F4000B4010E945B144B015C010E9475136B018C
:101F5000E12CF12C4AE0C701B6010E947005C701CF
:101F6000B6010E94A4139B01AC01C501B4010E94FB
:101F7000911220E030E040E251E40E945B140E94A4
:101F8000751380E090E04AE00E94700584E00E94B2
:101F90005305882351F080914B04882319F0109247
:101FA0004B0403C021E020934B0488E00E945305BA
:101FB000882309F499CE10924B0410924A0410928F
:101FC000490492CE82EA92E00E94EA0580913F04A1
:101FD00090914004892B21F48FEB92E00E94EA0556
:101FE00080913F0490914004019721F48DEC92E0A0
:101FF0000E94EA0580913F0490914004029721F4E9
:102000008CED92E00E94EA0580913F04909140049B
:10201000039721F480EF92E00E94EA0580913F044B
:1020200090914004049721F481E093E00E94EA0536
:1020300080913F0490914004059721F481E193E061
:102040000E94EA0580913F0490914004069721F494
:1020500085E293E00E94EA0580913F04909140045C
:10206000079721F487E393E00E94EA0580913F04FB
:1020700090914004089721F484E493E00E94EA05DB
:1020800080913F0490914004099721F482E593E008
:102090000E94EA0580913F04909140040A9721F440
:1020A00087E593E00E94EA0580913F049091400407
:1020B0000B9721F48BE693E00E94EA0580913F04A0
:1020C000909140040C9721F482E893E00E94EA0585
:1020D00080913F04909140040D9721F483E993E0AF
:1020E0000E94EA0580913F04909140040E9721F4EC
:1020F0008DEA93E00E94EA0580913F0490914004AC
:102100000F9721F481EC93E00E94EA0580913F044F
:1021100090914004409721F48DED93E00E94EA05F0
:1021200080913F0490914004419721F480EF93E027
:102130000E94EA0580913F0490914004429721F467
:1021400080E094E00E94EA0580913F049091400471
:10215000439721F483E194E00E94EA0580913F04D3
:1021600090914004449721F488E294E00E94EA05AB
:102170000E94EF0A882379F064E170E080E090E04B
:102180000E94ED09DC01CB010196A11DB11D9093C8
:10219000400480933F0480E20E945305882349F065
:1021A00080913C0490913D04019790933D0480936D
:1021B0003C0480E40E945305882321F0D0933D0421
:1021C000C0933C040E94F9052114310409F471CC38
:1021D0000E9400006ECC2115310581F0FA01E60F56
:1021E000F71FE654FF4FE491F0E0082C02C0F5958C
:1021F000E7950A94E2F7DC90ED29EC934F5F5F4F8F
:1022000011964835510509F006CCF8CBCF92DF92F4
:10221000EF92FF920F931F93CF93DF931F92CDB74F
:10222000DEB7182F062FE42E862F880F8E5F998336
:102230000E94150B83E00E94150BF12EC12E99818F
:10224000D92E8C2D8F19801798F4F601E7FE02C065
:10225000849101C080810E94150B182F80E00E949C
:10226000150B8123FFEFCF1ADF0A8111EACF01C0DE
:1022700081E00F90DF91CF911F910F91FF90EF9030
:10228000DF90CF900895E0E8F8E01382128288EEA4
:1022900093E0A0E0B0E084839583A683B7838DE1CB
:1022A00091E0918380838FEF9FEF95878487E5E5A9
:1022B000F8E0138212821186128620E1238790872C
:1022C0008783108A118A128A138A148A8FE291E016
:1022D000918380838DE391E095838483178A168AA6
:1022E000118E108E81E0828F138E848F158E08954B
:1022F0000F931F93CF93DF938C0181E090E00E94B6
:10230000181280FF31C08AE090E00E9418129FEFFF
:10231000980F9E3F48F522E330E0D80157963C9352
:102320002E93569728E330E059963C932E93589776
:10233000CBE0D0E0D801ED91FC910190F081E02D4F
:10234000682FC8010995CE010E9418122196C1314B
:10235000D10581F70E94F90588EE93E0DF91CF91D6
:102360001F910F910C94BC0ADF91CF911F910F9197
:10237000089504970C9478118F929F92AF92BF9218
:10238000CF92DF92EF92FF92CF93DF93EC016881BF
:1023900079818A819B81611571058105910521F4FF
:1023A00064E279ED8BE597E02DE133EF41E050E019
:1023B0000E942E1249015A019B01AC01A7EAB1E427
:1023C0000E944D126B017C01ACEEB4EFA5019401AB
:1023D0000E945B12DC01CB018C0D9D1DAE1DBF1D4B
:1023E000B7FF03C00197A109B04888839983AA83E6
:1023F000BB83BC01CD019F77DF91CF91FF90EF9020
:10240000DF90CF90BF90AF909F908F9008950E94E3
:10241000BC1108958EE091E00E94BC110895609374
:102420000E0170930F018093100190931101089594
:10243000F999FECF92BD81BDF89A992780B508958C
:10244000262FF999FECF1FBA92BD81BD20BD0FB6D0
:10245000F894FA9AF99A0FBE01960895052E97FB03
:102460001EF400940E94451257FD07D00E9460128E
:1024700007FC03D04EF40C944512509540953095CE
:1024800021953F4F4F4F5F4F0895909580957095E0
:1024900061957F4F8F4F9F4F08950E948212A59F95
:1024A000900DB49F900DA49F800D911D112408954F
:1024B000B7FF0C944D120E944D12821B930B08958E
:1024C000A1E21A2EAA1BBB1BFD010DC0AA1FBB1F38
:1024D000EE1FFF1FA217B307E407F50720F0A21BAA
:1024E000B30BE40BF50B661F771F881F991F1A9417
:1024F00069F760957095809590959B01AC01BD0141
:10250000CF010895A29FB001B39FC001A39F700D9A
:10251000811D1124911DB29F700D811D1124911DEB
:1025200008955058BB27AA270E94A9120C941C1486
:102530000E940E1438F00E94151420F039F49F3FC9
:1025400019F426F40C940B140EF4E095E7FB0C94AC
:102550000514E92F0E942D1458F3BA176207730768
:102560008407950720F079F4A6F50C944F140EF427
:10257000E0950B2EBA2FA02D0B01B90190010C0193
:10258000CA01A0011124FF27591B99F0593F50F4AB
:10259000503E68F11A16F040A22F232F342F442703
:1025A000585FF3CF469537952795A795F0405395FB
:1025B000C9F77EF41F16BA0B620B730B840BBAF0CB
:1025C0009150A1F0FF0FBB1F661F771F881FC2F736
:1025D0000EC0BA0F621F731F841F48F4879577954A
:1025E0006795B795F7959E3F08F0B0CF9395880F04
:1025F00008F09927EE0F9795879508950E94E113AB
:1026000008F481E008950E9417130C941C140E9492
:10261000151458F00E940E1440F029F45F3F29F081
:102620000C94051451110C9450140C940B140E942A
:102630002D1468F39923B1F3552391F3951B550B92
:10264000BB27AA2762177307840738F09F5F5F4F85
:10265000220F331F441FAA1FA9F335D00E2E3AF0C4
:10266000E0E832D091505040E695001CCAF72BD0DC
:10267000FE2F29D0660F771F881FBB1F261737072D
:102680004807AB07B0E809F0BB0B802DBF01FF275F
:1026900093585F4F3AF09E3F510578F00C94051423
:1026A0000C9450145F3FE4F3983ED4F386957795ED
:1026B0006795B795F7959F5FC9F7880F911D969518
:1026C000879597F90895E1E0660F771F881FBB1F74
:1026D000621773078407BA0720F0621B730B840B21
:1026E000BA0BEE1F88F7E09508950E94351488F024
:1026F0009F5798F0B92F9927B751B0F0E1F0660FC6
:10270000771F881F991F1AF0BA95C9F714C0B13006
:1027100091F00E944F14B1E008950C944F14672F6C
:10272000782F8827B85F39F0B93FCCF38695779535
:102730006795B395D9F73EF490958095709561951E
:102740007F4F8F4F9F4F0895E89409C097FB3EF449
:1027500090958095709561957F4F8F4F9F4F9923EE
:10276000A9F0F92F96E9BB279395F695879577956C
:102770006795B795F111F8CFFAF4BB0F11F460FF2C
:102780001BC06F5F7F4F8F4F9F4F16C0882311F084
:1027900096E911C0772321F09EE8872F762F05C098
:1027A000662371F096E8862F70E060E02AF09A9533
:1027B000660F771F881FDAF7880F9695879597F928
:1027C0000895990F0008550FAA0BE0E8FEEF1616C2
:1027D0001706E807F907C0F012161306E407F50715
:1027E00098F0621B730B840B950B39F40A2661F089
:1027F000232B242B252B21F408950A2609F4A1402C
:10280000A6958FEF811D811D089597F99F6780E838
:1028100070E060E008959FEF80EC089500240A9432
:102820001616170618060906089500240A941216AB
:102830001306140605060895092E0394000C11F4DE
:10284000882352F0BB0F40F4BF2B11F460FF04C08B
:102850006F5F7F4F8F4F9F4F089557FD9058440FE4
:10286000551F59F05F3F71F04795880F97FB991FEF
:1028700061F09F3F79F087950895121613061406AC
:10288000551FF2CF4695F1DF08C016161706180639
:10289000991FF1CF86957105610508940895E89414
:1028A000BB2766277727CB0197F908950E94E1138C
:1028B00008F48FEF08950E946E140C941C140E946B
:1028C0000E1438F00E94151420F0952311F00C948A
:1028D00005140C940B1411240C9450140E942D1404
:1028E00070F3959FC1F3950F50E0551F629FF00163
:1028F000729FBB27F00DB11D639FAA27F00DB11D7C
:10290000AA1F649F6627B00DA11D661F829F222704
:10291000B00DA11D621F739FB00DA11D621F839F8B
:10292000A00D611D221F749F3327A00D611D231F61
:10293000849F600D211D822F762F6A2F11249F57AF
:1029400050409AF0F1F088234AF0EE0FFF1FBB1FB2
:10295000661F771F881F91505040A9F79E3F510571
:1029600080F00C9405140C9450145F3FE4F3983EEF
:10297000D4F3869577956795B795F795E7959F5F1B
:10298000C1F7FE2B880F911D9695879597F90895AD
:102990000E94E113880B990B0895EE0FFF1F05901D
:1029A000F491E02D099481E090E0F8940C94D8140F
:0429B000F894FFCFC9
:1029B4000100FFFFFFFF00E1000000000000010034
:1029C400000000C1808100000000000000F40375D5
:1029D4000415040A045B041904370400000000D839
:1029E40008AD08E809E7097811FCFF0000B91153A4
:1029F400494D504C45205554494C49544945530A76
:102A04000A50524553532041204F5220420A0A0A89
:102A1400004D696B6D6F6F6D616D696D6F636B698F
:102A2400000A0A56657273696F6E2000312E3000F9
:102A34004C4546542F52494748543A537769746376
:102A4400680A7574696C69746965732E0A0A412F82
:102A5400423A557365207574696C69746965732E9F
:102A64000A0A55502F444F574E3A204368616E6707
:102A740065200A73657474696E677320696E2073C8
:102A84006F6D65200A7574696C69746965732E00CD
:102A9400524F4C4C203220362D5349444520444952
:102AA4004345200A574954482041204F5220420AA6
:102AB4000A000A0A53756D3A00524F4C4C203120DB
:102AC4004432300A574954482041204F5220420A88
:102AD4000A00524F4C4C203120444945204F462097
:102AE4000A594F55522043484F4F53494E470A50B5
:102AF40049434B2053494445532057495448200ADD
:102B040055502F444F574E0A0A0023206F662073F6
:102B1400696465733A200053544F505741544348F5
:102B24000A4220544F20535441525420414E4420D1
:102B34000A50415553452C204120544F20434C45C5
:102B440041520A0A0A006E616E00696E66006F7671
:102B540066004D4147494320382042414C4C0A0A03
:102B640050524553532041204F5220420A0A0050EC
:102B7400726573732041206F7220422100497420D2
:102B84006973206365727461696E2E0049742069EB
:102B94007320646563696465646C7920736F2E00C7
:102BA400576974686F7574206120646F7562742E40
:102BB4000059657320646566696E6974656C792E65
:102BC40000596F75206D61792072656C79206F6E84
:102BD4002069742E0041732049207365652069744F
:102BE4002C207965732E004D6F7374206C696B65AE
:102BF4006C792E004F75746C6F6F6B20676F6F6408
:102C04002E005965732E005369676E7320706F69C7
:102C14006E7420746F207965732E005265706C7920
:102C24002068617A792C2074727920616761696EF9
:102C34002E0041736B20616761696E206C6174655D
:102C4400722E00426574746572206E6F7420746510
:102C54006C6C20796F75200A6E6F772E0043616E5D
:102C64006E6F742070726564696374206E6F772E62
:102C740000436F6E63656E747261746520616E6487
:102C84002061736B200A616761696E2E00446F6E68
:102C9400277420636F756E74206F6E2069742E0024
:102CA4004D79207265706C79206973206E6F2E00E7
:102CB4004D7920736F757263657320736179206E2B
:102CC4006F2E004F75746C6F6F6B206E6F74207372
:102CD4006F20676F6F642E005665727920646F757C
:082CE400627466756C2E00009D
:00000001FF
